{
  "_format": "hh-sol-artifact-1",
  "contractName": "MyNFT",
  "sourceName": "contracts/MyNFT.sol",
  "abi": [
    {
      "inputs": [],
      "stateMutability": "nonpayable",
      "type": "constructor"
    },
    {
      "anonymous": false,
      "inputs": [
        {
          "indexed": true,
          "internalType": "address",
          "name": "owner",
          "type": "address"
        },
        {
          "indexed": true,
          "internalType": "address",
          "name": "approved",
          "type": "address"
        },
        {
          "indexed": true,
          "internalType": "uint256",
          "name": "tokenId",
          "type": "uint256"
        }
      ],
      "name": "Approval",
      "type": "event"
    },
    {
      "anonymous": false,
      "inputs": [
        {
          "indexed": true,
          "internalType": "address",
          "name": "owner",
          "type": "address"
        },
        {
          "indexed": true,
          "internalType": "address",
          "name": "operator",
          "type": "address"
        },
        {
          "indexed": false,
          "internalType": "bool",
          "name": "approved",
          "type": "bool"
        }
      ],
      "name": "ApprovalForAll",
      "type": "event"
    },
    {
      "anonymous": false,
      "inputs": [
        {
          "indexed": true,
          "internalType": "address",
          "name": "previousOwner",
          "type": "address"
        },
        {
          "indexed": true,
          "internalType": "address",
          "name": "newOwner",
          "type": "address"
        }
      ],
      "name": "OwnershipTransferred",
      "type": "event"
    },
    {
      "anonymous": false,
      "inputs": [
        {
          "indexed": true,
          "internalType": "address",
          "name": "from",
          "type": "address"
        },
        {
          "indexed": true,
          "internalType": "address",
          "name": "to",
          "type": "address"
        },
        {
          "indexed": true,
          "internalType": "uint256",
          "name": "tokenId",
          "type": "uint256"
        }
      ],
      "name": "Transfer",
      "type": "event"
    },
    {
      "inputs": [
        {
          "internalType": "string",
          "name": "uri",
          "type": "string"
        }
      ],
      "name": "Mint",
      "outputs": [],
      "stateMutability": "payable",
      "type": "function"
    },
    {
      "inputs": [
        {
          "internalType": "address",
          "name": "to",
          "type": "address"
        },
        {
          "internalType": "uint256",
          "name": "tokenId",
          "type": "uint256"
        }
      ],
      "name": "approve",
      "outputs": [],
      "stateMutability": "nonpayable",
      "type": "function"
    },
    {
      "inputs": [
        {
          "internalType": "address",
          "name": "owner",
          "type": "address"
        }
      ],
      "name": "balanceOf",
      "outputs": [
        {
          "internalType": "uint256",
          "name": "",
          "type": "uint256"
        }
      ],
      "stateMutability": "view",
      "type": "function"
    },
    {
      "inputs": [
        {
          "internalType": "uint256",
          "name": "tokenId",
          "type": "uint256"
        }
      ],
      "name": "getApproved",
      "outputs": [
        {
          "internalType": "address",
          "name": "",
          "type": "address"
        }
      ],
      "stateMutability": "view",
      "type": "function"
    },
    {
      "inputs": [
        {
          "internalType": "address",
          "name": "owner",
          "type": "address"
        },
        {
          "internalType": "address",
          "name": "operator",
          "type": "address"
        }
      ],
      "name": "isApprovedForAll",
      "outputs": [
        {
          "internalType": "bool",
          "name": "",
          "type": "bool"
        }
      ],
      "stateMutability": "view",
      "type": "function"
    },
    {
      "inputs": [],
      "name": "name",
      "outputs": [
        {
          "internalType": "string",
          "name": "",
          "type": "string"
        }
      ],
      "stateMutability": "view",
      "type": "function"
    },
    {
      "inputs": [],
      "name": "owner",
      "outputs": [
        {
          "internalType": "address",
          "name": "",
          "type": "address"
        }
      ],
      "stateMutability": "view",
      "type": "function"
    },
    {
      "inputs": [
        {
          "internalType": "uint256",
          "name": "tokenId",
          "type": "uint256"
        }
      ],
      "name": "ownerOf",
      "outputs": [
        {
          "internalType": "address",
          "name": "",
          "type": "address"
        }
      ],
      "stateMutability": "view",
      "type": "function"
    },
    {
      "inputs": [],
      "name": "renounceOwnership",
      "outputs": [],
      "stateMutability": "nonpayable",
      "type": "function"
    },
    {
      "inputs": [
        {
          "internalType": "address",
          "name": "from",
          "type": "address"
        },
        {
          "internalType": "address",
          "name": "to",
          "type": "address"
        },
        {
          "internalType": "uint256",
          "name": "tokenId",
          "type": "uint256"
        }
      ],
      "name": "safeTransferFrom",
      "outputs": [],
      "stateMutability": "nonpayable",
      "type": "function"
    },
    {
      "inputs": [
        {
          "internalType": "address",
          "name": "from",
          "type": "address"
        },
        {
          "internalType": "address",
          "name": "to",
          "type": "address"
        },
        {
          "internalType": "uint256",
          "name": "tokenId",
          "type": "uint256"
        },
        {
          "internalType": "bytes",
          "name": "_data",
          "type": "bytes"
        }
      ],
      "name": "safeTransferFrom",
      "outputs": [],
      "stateMutability": "nonpayable",
      "type": "function"
    },
    {
      "inputs": [
        {
          "internalType": "address",
          "name": "operator",
          "type": "address"
        },
        {
          "internalType": "bool",
          "name": "approved",
          "type": "bool"
        }
      ],
      "name": "setApprovalForAll",
      "outputs": [],
      "stateMutability": "nonpayable",
      "type": "function"
    },
    {
      "inputs": [
        {
          "internalType": "bytes4",
          "name": "interfaceId",
          "type": "bytes4"
        }
      ],
      "name": "supportsInterface",
      "outputs": [
        {
          "internalType": "bool",
          "name": "",
          "type": "bool"
        }
      ],
      "stateMutability": "view",
      "type": "function"
    },
    {
      "inputs": [],
      "name": "symbol",
      "outputs": [
        {
          "internalType": "string",
          "name": "",
          "type": "string"
        }
      ],
      "stateMutability": "view",
      "type": "function"
    },
    {
      "inputs": [
        {
          "internalType": "uint256",
          "name": "index",
          "type": "uint256"
        }
      ],
      "name": "tokenByIndex",
      "outputs": [
        {
          "internalType": "uint256",
          "name": "",
          "type": "uint256"
        }
      ],
      "stateMutability": "view",
      "type": "function"
    },
    {
      "inputs": [
        {
          "internalType": "address",
          "name": "owner",
          "type": "address"
        },
        {
          "internalType": "uint256",
          "name": "index",
          "type": "uint256"
        }
      ],
      "name": "tokenOfOwnerByIndex",
      "outputs": [
        {
          "internalType": "uint256",
          "name": "",
          "type": "uint256"
        }
      ],
      "stateMutability": "view",
      "type": "function"
    },
    {
      "inputs": [
        {
          "internalType": "uint256",
          "name": "tokenId",
          "type": "uint256"
        }
      ],
      "name": "tokenURI",
      "outputs": [
        {
          "internalType": "string",
          "name": "",
          "type": "string"
        }
      ],
      "stateMutability": "view",
      "type": "function"
    },
    {
      "inputs": [],
      "name": "totalSupply",
      "outputs": [
        {
          "internalType": "uint256",
          "name": "",
          "type": "uint256"
        }
      ],
      "stateMutability": "view",
      "type": "function"
    },
    {
      "inputs": [
        {
          "internalType": "address",
          "name": "from",
          "type": "address"
        },
        {
          "internalType": "address",
          "name": "to",
          "type": "address"
        },
        {
          "internalType": "uint256",
          "name": "tokenId",
          "type": "uint256"
        }
      ],
      "name": "transferFrom",
      "outputs": [],
      "stateMutability": "nonpayable",
      "type": "function"
    },
    {
      "inputs": [
        {
          "internalType": "address",
          "name": "newOwner",
          "type": "address"
        }
      ],
      "name": "transferOwnership",
      "outputs": [],
      "stateMutability": "nonpayable",
      "type": "function"
    }
  ],
  "bytecode": "0x60806040523480156200001157600080fd5b506040518060400160405280600e81526020017f4e46545f434f4c4c454354494f4e0000000000000000000000000000000000008152506040518060400160405280600481526020017f4e46544300000000000000000000000000000000000000000000000000000000815250816000908051906020019062000096929190620001a6565b508060019080519060200190620000af929190620001a6565b505050620000d2620000c6620000d860201b60201c565b620000e060201b60201c565b620002bb565b600033905090565b6000600b60009054906101000a900473ffffffffffffffffffffffffffffffffffffffff16905081600b60006101000a81548173ffffffffffffffffffffffffffffffffffffffff021916908373ffffffffffffffffffffffffffffffffffffffff1602179055508173ffffffffffffffffffffffffffffffffffffffff168173ffffffffffffffffffffffffffffffffffffffff167f8be0079c531659141344cd1fd0a4f28419497f9722a3daafe3b4186f6b6457e060405160405180910390a35050565b828054620001b49062000256565b90600052602060002090601f016020900481019282620001d8576000855562000224565b82601f10620001f357805160ff191683800117855562000224565b8280016001018555821562000224579182015b828111156200022357825182559160200191906001019062000206565b5b50905062000233919062000237565b5090565b5b808211156200025257600081600090555060010162000238565b5090565b600060028204905060018216806200026f57607f821691505b602082108114156200028657620002856200028c565b5b50919050565b7f4e487b7100000000000000000000000000000000000000000000000000000000600052602260045260246000fd5b6138e780620002cb6000396000f3fe60806040526004361061011f5760003560e01c806370a08231116100a0578063b88d4fde11610064578063b88d4fde146103f9578063c5e1d73114610422578063c87b56dd1461043e578063e985e9c51461047b578063f2fde38b146104b85761011f565b806370a0823114610326578063715018a6146103635780638da5cb5b1461037a57806395d89b41146103a5578063a22cb465146103d05761011f565b806323b872dd116100e757806323b872dd1461021d5780632f745c591461024657806342842e0e146102835780634f6ccce7146102ac5780636352211e146102e95761011f565b806301ffc9a71461012457806306fdde0314610161578063081812fc1461018c578063095ea7b3146101c957806318160ddd146101f2575b600080fd5b34801561013057600080fd5b5061014b60048036038101906101469190612731565b6104e1565b6040516101589190612c04565b60405180910390f35b34801561016d57600080fd5b506101766104f3565b6040516101839190612c1f565b60405180910390f35b34801561019857600080fd5b506101b360048036038101906101ae91906127c4565b610585565b6040516101c09190612b9d565b60405180910390f35b3480156101d557600080fd5b506101f060048036038101906101eb91906126f5565b61060a565b005b3480156101fe57600080fd5b50610207610722565b6040516102149190612ec1565b60405180910390f35b34801561022957600080fd5b50610244600480360381019061023f91906125ef565b61072f565b005b34801561025257600080fd5b5061026d600480360381019061026891906126f5565b61078f565b60405161027a9190612ec1565b60405180910390f35b34801561028f57600080fd5b506102aa60048036038101906102a591906125ef565b610834565b005b3480156102b857600080fd5b506102d360048036038101906102ce91906127c4565b610854565b6040516102e09190612ec1565b60405180910390f35b3480156102f557600080fd5b50610310600480360381019061030b91906127c4565b6108eb565b60405161031d9190612b9d565b60405180910390f35b34801561033257600080fd5b5061034d6004803603810190610348919061258a565b61099d565b60405161035a9190612ec1565b60405180910390f35b34801561036f57600080fd5b50610378610a55565b005b34801561038657600080fd5b5061038f610add565b60405161039c9190612b9d565b60405180910390f35b3480156103b157600080fd5b506103ba610b07565b6040516103c79190612c1f565b60405180910390f35b3480156103dc57600080fd5b506103f760048036038101906103f291906126b9565b610b99565b005b34801561040557600080fd5b50610420600480360381019061041b919061263e565b610baf565b005b61043c60048036038101906104379190612783565b610c11565b005b34801561044a57600080fd5b50610465600480360381019061046091906127c4565b610c41565b6040516104729190612c1f565b60405180910390f35b34801561048757600080fd5b506104a2600480360381019061049d91906125b3565b610c53565b6040516104af9190612c04565b60405180910390f35b3480156104c457600080fd5b506104df60048036038101906104da919061258a565b610ce7565b005b60006104ec82610ddf565b9050919050565b60606000805461050290613117565b80601f016020809104026020016040519081016040528092919081815260200182805461052e90613117565b801561057b5780601f106105505761010080835404028352916020019161057b565b820191906000526020600020905b81548152906001019060200180831161055e57829003601f168201915b5050505050905090565b600061059082610e59565b6105cf576040517f08c379a00000000000000000000000000000000000000000000000000000000081526004016105c690612e01565b60405180910390fd5b6004600083815260200190815260200160002060009054906101000a900473ffffffffffffffffffffffffffffffffffffffff169050919050565b6000610615826108eb565b90508073ffffffffffffffffffffffffffffffffffffffff168373ffffffffffffffffffffffffffffffffffffffff161415610686576040517f08c379a000000000000000000000000000000000000000000000000000000000815260040161067d90612e61565b60405180910390fd5b8073ffffffffffffffffffffffffffffffffffffffff166106a5610ec5565b73ffffffffffffffffffffffffffffffffffffffff1614806106d457506106d3816106ce610ec5565b610c53565b5b610713576040517f08c379a000000000000000000000000000000000000000000000000000000000815260040161070a90612d41565b60405180910390fd5b61071d8383610ecd565b505050565b6000600880549050905090565b61074061073a610ec5565b82610f86565b61077f576040517f08c379a000000000000000000000000000000000000000000000000000000000815260040161077690612e81565b60405180910390fd5b61078a838383611064565b505050565b600061079a8361099d565b82106107db576040517f08c379a00000000000000000000000000000000000000000000000000000000081526004016107d290612c41565b60405180910390fd5b600660008473ffffffffffffffffffffffffffffffffffffffff1673ffffffffffffffffffffffffffffffffffffffff168152602001908152602001600020600083815260200190815260200160002054905092915050565b61084f83838360405180602001604052806000815250610baf565b505050565b600061085e610722565b821061089f576040517f08c379a000000000000000000000000000000000000000000000000000000000815260040161089690612ea1565b60405180910390fd5b600882815481106108d9577f4e487b7100000000000000000000000000000000000000000000000000000000600052603260045260246000fd5b90600052602060002001549050919050565b6000806002600084815260200190815260200160002060009054906101000a900473ffffffffffffffffffffffffffffffffffffffff169050600073ffffffffffffffffffffffffffffffffffffffff168173ffffffffffffffffffffffffffffffffffffffff161415610994576040517f08c379a000000000000000000000000000000000000000000000000000000000815260040161098b90612d81565b60405180910390fd5b80915050919050565b60008073ffffffffffffffffffffffffffffffffffffffff168273ffffffffffffffffffffffffffffffffffffffff161415610a0e576040517f08c379a0000000000000000000000000000000000000000000000000000000008152600401610a0590612d61565b60405180910390fd5b600360008373ffffffffffffffffffffffffffffffffffffffff1673ffffffffffffffffffffffffffffffffffffffff168152602001908152602001600020549050919050565b610a5d610ec5565b73ffffffffffffffffffffffffffffffffffffffff16610a7b610add565b73ffffffffffffffffffffffffffffffffffffffff1614610ad1576040517f08c379a0000000000000000000000000000000000000000000000000000000008152600401610ac890612e21565b60405180910390fd5b610adb60006112cb565b565b6000600b60009054906101000a900473ffffffffffffffffffffffffffffffffffffffff16905090565b606060018054610b1690613117565b80601f0160208091040260200160405190810160405280929190818152602001828054610b4290613117565b8015610b8f5780601f10610b6457610100808354040283529160200191610b8f565b820191906000526020600020905b815481529060010190602001808311610b7257829003601f168201915b5050505050905090565b610bab610ba4610ec5565b8383611391565b5050565b610bc0610bba610ec5565b83610f86565b610bff576040517f08c379a0000000000000000000000000000000000000000000000000000000008152600401610bf690612e81565b60405180910390fd5b610c0b848484846114fe565b50505050565b6000610c1d600c61155a565b9050610c29600c611568565b610c33338261157e565b610c3d818361159c565b5050565b6060610c4c82611610565b9050919050565b6000600560008473ffffffffffffffffffffffffffffffffffffffff1673ffffffffffffffffffffffffffffffffffffffff16815260200190815260200160002060008373ffffffffffffffffffffffffffffffffffffffff1673ffffffffffffffffffffffffffffffffffffffff16815260200190815260200160002060009054906101000a900460ff16905092915050565b610cef610ec5565b73ffffffffffffffffffffffffffffffffffffffff16610d0d610add565b73ffffffffffffffffffffffffffffffffffffffff1614610d63576040517f08c379a0000000000000000000000000000000000000000000000000000000008152600401610d5a90612e21565b60405180910390fd5b600073ffffffffffffffffffffffffffffffffffffffff168173ffffffffffffffffffffffffffffffffffffffff161415610dd3576040517f08c379a0000000000000000000000000000000000000000000000000000000008152600401610dca90612c81565b60405180910390fd5b610ddc816112cb565b50565b60007f780e9d63000000000000000000000000000000000000000000000000000000007bffffffffffffffffffffffffffffffffffffffffffffffffffffffff1916827bffffffffffffffffffffffffffffffffffffffffffffffffffffffff19161480610e525750610e5182611762565b5b9050919050565b60008073ffffffffffffffffffffffffffffffffffffffff166002600084815260200190815260200160002060009054906101000a900473ffffffffffffffffffffffffffffffffffffffff1673ffffffffffffffffffffffffffffffffffffffff1614159050919050565b600033905090565b816004600083815260200190815260200160002060006101000a81548173ffffffffffffffffffffffffffffffffffffffff021916908373ffffffffffffffffffffffffffffffffffffffff160217905550808273ffffffffffffffffffffffffffffffffffffffff16610f40836108eb565b73ffffffffffffffffffffffffffffffffffffffff167f8c5be1e5ebec7d5bd14f71427d1e84f3dd0314c0f7b2291e5b200ac8c7c3b92560405160405180910390a45050565b6000610f9182610e59565b610fd0576040517f08c379a0000000000000000000000000000000000000000000000000000000008152600401610fc790612d21565b60405180910390fd5b6000610fdb836108eb565b90508073ffffffffffffffffffffffffffffffffffffffff168473ffffffffffffffffffffffffffffffffffffffff16148061101d575061101c8185610c53565b5b8061105b57508373ffffffffffffffffffffffffffffffffffffffff1661104384610585565b73ffffffffffffffffffffffffffffffffffffffff16145b91505092915050565b8273ffffffffffffffffffffffffffffffffffffffff16611084826108eb565b73ffffffffffffffffffffffffffffffffffffffff16146110da576040517f08c379a00000000000000000000000000000000000000000000000000000000081526004016110d190612ca1565b60405180910390fd5b600073ffffffffffffffffffffffffffffffffffffffff168273ffffffffffffffffffffffffffffffffffffffff16141561114a576040517f08c379a000000000000000000000000000000000000000000000000000000000815260040161114190612ce1565b60405180910390fd5b611155838383611844565b611160600082610ecd565b6001600360008573ffffffffffffffffffffffffffffffffffffffff1673ffffffffffffffffffffffffffffffffffffffff16815260200190815260200160002060008282546111b0919061302d565b925050819055506001600360008473ffffffffffffffffffffffffffffffffffffffff1673ffffffffffffffffffffffffffffffffffffffff16815260200190815260200160002060008282546112079190612fa6565b92505081905550816002600083815260200190815260200160002060006101000a81548173ffffffffffffffffffffffffffffffffffffffff021916908373ffffffffffffffffffffffffffffffffffffffff160217905550808273ffffffffffffffffffffffffffffffffffffffff168473ffffffffffffffffffffffffffffffffffffffff167fddf252ad1be2c89b69c2b068fc378daa952ba7f163c4a11628f55a4df523b3ef60405160405180910390a46112c6838383611854565b505050565b6000600b60009054906101000a900473ffffffffffffffffffffffffffffffffffffffff16905081600b60006101000a81548173ffffffffffffffffffffffffffffffffffffffff021916908373ffffffffffffffffffffffffffffffffffffffff1602179055508173ffffffffffffffffffffffffffffffffffffffff168173ffffffffffffffffffffffffffffffffffffffff167f8be0079c531659141344cd1fd0a4f28419497f9722a3daafe3b4186f6b6457e060405160405180910390a35050565b8173ffffffffffffffffffffffffffffffffffffffff168373ffffffffffffffffffffffffffffffffffffffff161415611400576040517f08c379a00000000000000000000000000000000000000000000000000000000081526004016113f790612d01565b60405180910390fd5b80600560008573ffffffffffffffffffffffffffffffffffffffff1673ffffffffffffffffffffffffffffffffffffffff16815260200190815260200160002060008473ffffffffffffffffffffffffffffffffffffffff1673ffffffffffffffffffffffffffffffffffffffff16815260200190815260200160002060006101000a81548160ff0219169083151502179055508173ffffffffffffffffffffffffffffffffffffffff168373ffffffffffffffffffffffffffffffffffffffff167f17307eab39ab6107e8899845ad3d59bd9653f200f220920489ca2b5937696c31836040516114f19190612c04565b60405180910390a3505050565b611509848484611064565b61151584848484611859565b611554576040517f08c379a000000000000000000000000000000000000000000000000000000000815260040161154b90612c61565b60405180910390fd5b50505050565b600081600001549050919050565b6001816000016000828254019250508190555050565b6115988282604051806020016040528060008152506119f0565b5050565b6115a582610e59565b6115e4576040517f08c379a00000000000000000000000000000000000000000000000000000000081526004016115db90612da1565b60405180910390fd5b80600a6000848152602001908152602001600020908051906020019061160b9291906123ae565b505050565b606061161b82610e59565b61165a576040517f08c379a000000000000000000000000000000000000000000000000000000000815260040161165190612de1565b60405180910390fd5b6000600a6000848152602001908152602001600020805461167a90613117565b80601f01602080910402602001604051908101604052809291908181526020018280546116a690613117565b80156116f35780601f106116c8576101008083540402835291602001916116f3565b820191906000526020600020905b8154815290600101906020018083116116d657829003601f168201915b505050505090506000611704611a4b565b905060008151141561171a57819250505061175d565b60008251111561174f578082604051602001611737929190612b79565b6040516020818303038152906040529250505061175d565b61175884611a62565b925050505b919050565b60007f80ac58cd000000000000000000000000000000000000000000000000000000007bffffffffffffffffffffffffffffffffffffffffffffffffffffffff1916827bffffffffffffffffffffffffffffffffffffffffffffffffffffffff1916148061182d57507f5b5e139f000000000000000000000000000000000000000000000000000000007bffffffffffffffffffffffffffffffffffffffffffffffffffffffff1916827bffffffffffffffffffffffffffffffffffffffffffffffffffffffff1916145b8061183d575061183c82611b09565b5b9050919050565b61184f838383611b73565b505050565b505050565b600061187a8473ffffffffffffffffffffffffffffffffffffffff16611c87565b156119e3578373ffffffffffffffffffffffffffffffffffffffff1663150b7a026118a3610ec5565b8786866040518563ffffffff1660e01b81526004016118c59493929190612bb8565b602060405180830381600087803b1580156118df57600080fd5b505af192505050801561191057506040513d601f19601f8201168201806040525081019061190d919061275a565b60015b611993573d8060008114611940576040519150601f19603f3d011682016040523d82523d6000602084013e611945565b606091505b5060008151141561198b576040517f08c379a000000000000000000000000000000000000000000000000000000000815260040161198290612c61565b60405180910390fd5b805181602001fd5b63150b7a0260e01b7bffffffffffffffffffffffffffffffffffffffffffffffffffffffff1916817bffffffffffffffffffffffffffffffffffffffffffffffffffffffff1916149150506119e8565b600190505b949350505050565b6119fa8383611caa565b611a076000848484611859565b611a46576040517f08c379a0000000000000000000000000000000000000000000000000000000008152600401611a3d90612c61565b60405180910390fd5b505050565b606060405180602001604052806000815250905090565b6060611a6d82610e59565b611aac576040517f08c379a0000000000000000000000000000000000000000000000000000000008152600401611aa390612e41565b60405180910390fd5b6000611ab6611a4b565b90506000815111611ad65760405180602001604052806000815250611b01565b80611ae084611e84565b604051602001611af1929190612b79565b6040516020818303038152906040525b915050919050565b60007f01ffc9a7000000000000000000000000000000000000000000000000000000007bffffffffffffffffffffffffffffffffffffffffffffffffffffffff1916827bffffffffffffffffffffffffffffffffffffffffffffffffffffffff1916149050919050565b611b7e838383612031565b600073ffffffffffffffffffffffffffffffffffffffff168373ffffffffffffffffffffffffffffffffffffffff161415611bc157611bbc81612036565b611c00565b8173ffffffffffffffffffffffffffffffffffffffff168373ffffffffffffffffffffffffffffffffffffffff1614611bff57611bfe838261207f565b5b5b600073ffffffffffffffffffffffffffffffffffffffff168273ffffffffffffffffffffffffffffffffffffffff161415611c4357611c3e816121ec565b611c82565b8273ffffffffffffffffffffffffffffffffffffffff168273ffffffffffffffffffffffffffffffffffffffff1614611c8157611c80828261232f565b5b5b505050565b6000808273ffffffffffffffffffffffffffffffffffffffff163b119050919050565b600073ffffffffffffffffffffffffffffffffffffffff168273ffffffffffffffffffffffffffffffffffffffff161415611d1a576040517f08c379a0000000000000000000000000000000000000000000000000000000008152600401611d1190612dc1565b60405180910390fd5b611d2381610e59565b15611d63576040517f08c379a0000000000000000000000000000000000000000000000000000000008152600401611d5a90612cc1565b60405180910390fd5b611d6f60008383611844565b6001600360008473ffffffffffffffffffffffffffffffffffffffff1673ffffffffffffffffffffffffffffffffffffffff1681526020019081526020016000206000828254611dbf9190612fa6565b92505081905550816002600083815260200190815260200160002060006101000a81548173ffffffffffffffffffffffffffffffffffffffff021916908373ffffffffffffffffffffffffffffffffffffffff160217905550808273ffffffffffffffffffffffffffffffffffffffff16600073ffffffffffffffffffffffffffffffffffffffff167fddf252ad1be2c89b69c2b068fc378daa952ba7f163c4a11628f55a4df523b3ef60405160405180910390a4611e8060008383611854565b5050565b60606000821415611ecc576040518060400160405280600181526020017f3000000000000000000000000000000000000000000000000000000000000000815250905061202c565b600082905060005b60008214611efe578080611ee79061317a565b915050600a82611ef79190612ffc565b9150611ed4565b60008167ffffffffffffffff811115611f40577f4e487b7100000000000000000000000000000000000000000000000000000000600052604160045260246000fd5b6040519080825280601f01601f191660200182016040528015611f725781602001600182028036833780820191505090505b5090505b6000851461202557600182611f8b919061302d565b9150600a85611f9a91906131c3565b6030611fa69190612fa6565b60f81b818381518110611fe2577f4e487b7100000000000000000000000000000000000000000000000000000000600052603260045260246000fd5b60200101907effffffffffffffffffffffffffffffffffffffffffffffffffffffffffffff1916908160001a905350600a8561201e9190612ffc565b9450611f76565b8093505050505b919050565b505050565b6008805490506009600083815260200190815260200160002081905550600881908060018154018082558091505060019003906000526020600020016000909190919091505550565b6000600161208c8461099d565b612096919061302d565b905060006007600084815260200190815260200160002054905081811461217b576000600660008673ffffffffffffffffffffffffffffffffffffffff1673ffffffffffffffffffffffffffffffffffffffff168152602001908152602001600020600084815260200190815260200160002054905080600660008773ffffffffffffffffffffffffffffffffffffffff1673ffffffffffffffffffffffffffffffffffffffff168152602001908152602001600020600084815260200190815260200160002081905550816007600083815260200190815260200160002081905550505b6007600084815260200190815260200160002060009055600660008573ffffffffffffffffffffffffffffffffffffffff1673ffffffffffffffffffffffffffffffffffffffff16815260200190815260200160002060008381526020019081526020016000206000905550505050565b60006001600880549050612200919061302d565b9050600060096000848152602001908152602001600020549050600060088381548110612256577f4e487b7100000000000000000000000000000000000000000000000000000000600052603260045260246000fd5b90600052602060002001549050806008838154811061229e577f4e487b7100000000000000000000000000000000000000000000000000000000600052603260045260246000fd5b906000526020600020018190555081600960008381526020019081526020016000208190555060096000858152602001908152602001600020600090556008805480612313577f4e487b7100000000000000000000000000000000000000000000000000000000600052603160045260246000fd5b6001900381819060005260206000200160009055905550505050565b600061233a8361099d565b905081600660008573ffffffffffffffffffffffffffffffffffffffff1673ffffffffffffffffffffffffffffffffffffffff168152602001908152602001600020600083815260200190815260200160002081905550806007600084815260200190815260200160002081905550505050565b8280546123ba90613117565b90600052602060002090601f0160209004810192826123dc5760008555612423565b82601f106123f557805160ff1916838001178555612423565b82800160010185558215612423579182015b82811115612422578251825591602001919060010190612407565b5b5090506124309190612434565b5090565b5b8082111561244d576000816000905550600101612435565b5090565b600061246461245f84612f01565b612edc565b90508281526020810184848401111561247c57600080fd5b6124878482856130d5565b509392505050565b60006124a261249d84612f32565b612edc565b9050828152602081018484840111156124ba57600080fd5b6124c58482856130d5565b509392505050565b6000813590506124dc81613855565b92915050565b6000813590506124f18161386c565b92915050565b60008135905061250681613883565b92915050565b60008151905061251b81613883565b92915050565b600082601f83011261253257600080fd5b8135612542848260208601612451565b91505092915050565b600082601f83011261255c57600080fd5b813561256c84826020860161248f565b91505092915050565b6000813590506125848161389a565b92915050565b60006020828403121561259c57600080fd5b60006125aa848285016124cd565b91505092915050565b600080604083850312156125c657600080fd5b60006125d4858286016124cd565b92505060206125e5858286016124cd565b9150509250929050565b60008060006060848603121561260457600080fd5b6000612612868287016124cd565b9350506020612623868287016124cd565b925050604061263486828701612575565b9150509250925092565b6000806000806080858703121561265457600080fd5b6000612662878288016124cd565b9450506020612673878288016124cd565b935050604061268487828801612575565b925050606085013567ffffffffffffffff8111156126a157600080fd5b6126ad87828801612521565b91505092959194509250565b600080604083850312156126cc57600080fd5b60006126da858286016124cd565b92505060206126eb858286016124e2565b9150509250929050565b6000806040838503121561270857600080fd5b6000612716858286016124cd565b925050602061272785828601612575565b9150509250929050565b60006020828403121561274357600080fd5b6000612751848285016124f7565b91505092915050565b60006020828403121561276c57600080fd5b600061277a8482850161250c565b91505092915050565b60006020828403121561279557600080fd5b600082013567ffffffffffffffff8111156127af57600080fd5b6127bb8482850161254b565b91505092915050565b6000602082840312156127d657600080fd5b60006127e484828501612575565b91505092915050565b6127f681613061565b82525050565b61280581613073565b82525050565b600061281682612f63565b6128208185612f79565b93506128308185602086016130e4565b612839816132b0565b840191505092915050565b600061284f82612f6e565b6128598185612f8a565b93506128698185602086016130e4565b612872816132b0565b840191505092915050565b600061288882612f6e565b6128928185612f9b565b93506128a28185602086016130e4565b80840191505092915050565b60006128bb602b83612f8a565b91506128c6826132c1565b604082019050919050565b60006128de603283612f8a565b91506128e982613310565b604082019050919050565b6000612901602683612f8a565b915061290c8261335f565b604082019050919050565b6000612924602583612f8a565b915061292f826133ae565b604082019050919050565b6000612947601c83612f8a565b9150612952826133fd565b602082019050919050565b600061296a602483612f8a565b915061297582613426565b604082019050919050565b600061298d601983612f8a565b915061299882613475565b602082019050919050565b60006129b0602c83612f8a565b91506129bb8261349e565b604082019050919050565b60006129d3603883612f8a565b91506129de826134ed565b604082019050919050565b60006129f6602a83612f8a565b9150612a018261353c565b604082019050919050565b6000612a19602983612f8a565b9150612a248261358b565b604082019050919050565b6000612a3c602e83612f8a565b9150612a47826135da565b604082019050919050565b6000612a5f602083612f8a565b9150612a6a82613629565b602082019050919050565b6000612a82603183612f8a565b9150612a8d82613652565b604082019050919050565b6000612aa5602c83612f8a565b9150612ab0826136a1565b604082019050919050565b6000612ac8602083612f8a565b9150612ad3826136f0565b602082019050919050565b6000612aeb602f83612f8a565b9150612af682613719565b604082019050919050565b6000612b0e602183612f8a565b9150612b1982613768565b604082019050919050565b6000612b31603183612f8a565b9150612b3c826137b7565b604082019050919050565b6000612b54602c83612f8a565b9150612b5f82613806565b604082019050919050565b612b73816130cb565b82525050565b6000612b85828561287d565b9150612b91828461287d565b91508190509392505050565b6000602082019050612bb260008301846127ed565b92915050565b6000608082019050612bcd60008301876127ed565b612bda60208301866127ed565b612be76040830185612b6a565b8181036060830152612bf9818461280b565b905095945050505050565b6000602082019050612c1960008301846127fc565b92915050565b60006020820190508181036000830152612c398184612844565b905092915050565b60006020820190508181036000830152612c5a816128ae565b9050919050565b60006020820190508181036000830152612c7a816128d1565b9050919050565b60006020820190508181036000830152612c9a816128f4565b9050919050565b60006020820190508181036000830152612cba81612917565b9050919050565b60006020820190508181036000830152612cda8161293a565b9050919050565b60006020820190508181036000830152612cfa8161295d565b9050919050565b60006020820190508181036000830152612d1a81612980565b9050919050565b60006020820190508181036000830152612d3a816129a3565b9050919050565b60006020820190508181036000830152612d5a816129c6565b9050919050565b60006020820190508181036000830152612d7a816129e9565b9050919050565b60006020820190508181036000830152612d9a81612a0c565b9050919050565b60006020820190508181036000830152612dba81612a2f565b9050919050565b60006020820190508181036000830152612dda81612a52565b9050919050565b60006020820190508181036000830152612dfa81612a75565b9050919050565b60006020820190508181036000830152612e1a81612a98565b9050919050565b60006020820190508181036000830152612e3a81612abb565b9050919050565b60006020820190508181036000830152612e5a81612ade565b9050919050565b60006020820190508181036000830152612e7a81612b01565b9050919050565b60006020820190508181036000830152612e9a81612b24565b9050919050565b60006020820190508181036000830152612eba81612b47565b9050919050565b6000602082019050612ed66000830184612b6a565b92915050565b6000612ee6612ef7565b9050612ef28282613149565b919050565b6000604051905090565b600067ffffffffffffffff821115612f1c57612f1b613281565b5b612f25826132b0565b9050602081019050919050565b600067ffffffffffffffff821115612f4d57612f4c613281565b5b612f56826132b0565b9050602081019050919050565b600081519050919050565b600081519050919050565b600082825260208201905092915050565b600082825260208201905092915050565b600081905092915050565b6000612fb1826130cb565b9150612fbc836130cb565b9250827fffffffffffffffffffffffffffffffffffffffffffffffffffffffffffffffff03821115612ff157612ff06131f4565b5b828201905092915050565b6000613007826130cb565b9150613012836130cb565b92508261302257613021613223565b5b828204905092915050565b6000613038826130cb565b9150613043836130cb565b925082821015613056576130556131f4565b5b828203905092915050565b600061306c826130ab565b9050919050565b60008115159050919050565b60007fffffffff0000000000000000000000000000000000000000000000000000000082169050919050565b600073ffffffffffffffffffffffffffffffffffffffff82169050919050565b6000819050919050565b82818337600083830152505050565b60005b838110156131025780820151818401526020810190506130e7565b83811115613111576000848401525b50505050565b6000600282049050600182168061312f57607f821691505b6020821081141561314357613142613252565b5b50919050565b613152826132b0565b810181811067ffffffffffffffff8211171561317157613170613281565b5b80604052505050565b6000613185826130cb565b91507fffffffffffffffffffffffffffffffffffffffffffffffffffffffffffffffff8214156131b8576131b76131f4565b5b600182019050919050565b60006131ce826130cb565b91506131d9836130cb565b9250826131e9576131e8613223565b5b828206905092915050565b7f4e487b7100000000000000000000000000000000000000000000000000000000600052601160045260246000fd5b7f4e487b7100000000000000000000000000000000000000000000000000000000600052601260045260246000fd5b7f4e487b7100000000000000000000000000000000000000000000000000000000600052602260045260246000fd5b7f4e487b7100000000000000000000000000000000000000000000000000000000600052604160045260246000fd5b6000601f19601f8301169050919050565b7f455243373231456e756d657261626c653a206f776e657220696e646578206f7560008201527f74206f6620626f756e6473000000000000000000000000000000000000000000602082015250565b7f4552433732313a207472616e7366657220746f206e6f6e20455243373231526560008201527f63656976657220696d706c656d656e7465720000000000000000000000000000602082015250565b7f4f776e61626c653a206e6577206f776e657220697320746865207a65726f206160008201527f6464726573730000000000000000000000000000000000000000000000000000602082015250565b7f4552433732313a207472616e736665722066726f6d20696e636f72726563742060008201527f6f776e6572000000000000000000000000000000000000000000000000000000602082015250565b7f4552433732313a20746f6b656e20616c7265616479206d696e74656400000000600082015250565b7f4552433732313a207472616e7366657220746f20746865207a65726f2061646460008201527f7265737300000000000000000000000000000000000000000000000000000000602082015250565b7f4552433732313a20617070726f766520746f2063616c6c657200000000000000600082015250565b7f4552433732313a206f70657261746f7220717565727920666f72206e6f6e657860008201527f697374656e7420746f6b656e0000000000000000000000000000000000000000602082015250565b7f4552433732313a20617070726f76652063616c6c6572206973206e6f74206f7760008201527f6e6572206e6f7220617070726f76656420666f7220616c6c0000000000000000602082015250565b7f4552433732313a2062616c616e636520717565727920666f7220746865207a6560008201527f726f206164647265737300000000000000000000000000000000000000000000602082015250565b7f4552433732313a206f776e657220717565727920666f72206e6f6e657869737460008201527f656e7420746f6b656e0000000000000000000000000000000000000000000000602082015250565b7f45524337323155524953746f726167653a2055524920736574206f66206e6f6e60008201527f6578697374656e7420746f6b656e000000000000000000000000000000000000602082015250565b7f4552433732313a206d696e7420746f20746865207a65726f2061646472657373600082015250565b7f45524337323155524953746f726167653a2055524920717565727920666f722060008201527f6e6f6e6578697374656e7420746f6b656e000000000000000000000000000000602082015250565b7f4552433732313a20617070726f76656420717565727920666f72206e6f6e657860008201527f697374656e7420746f6b656e0000000000000000000000000000000000000000602082015250565b7f4f776e61626c653a2063616c6c6572206973206e6f7420746865206f776e6572600082015250565b7f4552433732314d657461646174613a2055524920717565727920666f72206e6f60008201527f6e6578697374656e7420746f6b656e0000000000000000000000000000000000602082015250565b7f4552433732313a20617070726f76616c20746f2063757272656e74206f776e6560008201527f7200000000000000000000000000000000000000000000000000000000000000602082015250565b7f4552433732313a207472616e736665722063616c6c6572206973206e6f74206f60008201527f776e6572206e6f7220617070726f766564000000000000000000000000000000602082015250565b7f455243373231456e756d657261626c653a20676c6f62616c20696e646578206f60008201527f7574206f6620626f756e64730000000000000000000000000000000000000000602082015250565b61385e81613061565b811461386957600080fd5b50565b61387581613073565b811461388057600080fd5b50565b61388c8161307f565b811461389757600080fd5b50565b6138a3816130cb565b81146138ae57600080fd5b5056fea2646970667358221220519579ece4bb3a8036e42c0c505d16b147145dea5c27db2c9532f66cba581c5364736f6c63430008040033",
  "linkReferences": {},
  "deployedLinkReferences": {}
}